{
  "_format": "hh-sol-artifact-1",
  "contractName": "Dao",
  "sourceName": "contracts/Dao.sol",
  "abi": [
    {
      "inputs": [],
      "stateMutability": "nonpayable",
      "type": "constructor"
    },
    {
      "anonymous": false,
      "inputs": [
        {
          "indexed": false,
          "internalType": "string",
          "name": "proposal",
          "type": "string"
        }
      ],
      "name": "proposal_ready_for_vote",
      "type": "event"
    },
    {
      "inputs": [],
      "name": "activeProposal",
      "outputs": [
        {
          "internalType": "string",
          "name": "",
          "type": "string"
        }
      ],
      "stateMutability": "view",
      "type": "function"
    },
    {
      "inputs": [],
      "name": "activeProposalApprovedVotesCount",
      "outputs": [
        {
          "internalType": "uint16",
          "name": "",
          "type": "uint16"
        }
      ],
      "stateMutability": "view",
      "type": "function"
    },
    {
      "inputs": [],
      "name": "activeProposalRejectedVotesCount",
      "outputs": [
        {
          "internalType": "uint16",
          "name": "",
          "type": "uint16"
        }
      ],
      "stateMutability": "view",
      "type": "function"
    },
    {
      "inputs": [
        {
          "internalType": "bool",
          "name": "inProposalFavour",
          "type": "bool"
        }
      ],
      "name": "castVoteForActiveProposal",
      "outputs": [],
      "stateMutability": "nonpayable",
      "type": "function"
    },
    {
      "inputs": [],
      "name": "orgName",
      "outputs": [
        {
          "internalType": "string",
          "name": "",
          "type": "string"
        }
      ],
      "stateMutability": "view",
      "type": "function"
    },
    {
      "inputs": [],
      "name": "owner",
      "outputs": [
        {
          "internalType": "address",
          "name": "",
          "type": "address"
        }
      ],
      "stateMutability": "view",
      "type": "function"
    },
    {
      "inputs": [
        {
          "internalType": "address",
          "name": "",
          "type": "address"
        }
      ],
      "name": "proposalVotes",
      "outputs": [
        {
          "internalType": "string",
          "name": "proposal",
          "type": "string"
        },
        {
          "internalType": "bool",
          "name": "approved",
          "type": "bool"
        }
      ],
      "stateMutability": "view",
      "type": "function"
    },
    {
      "inputs": [
        {
          "internalType": "string",
          "name": "_name",
          "type": "string"
        }
      ],
      "name": "setOrgName",
      "outputs": [],
      "stateMutability": "nonpayable",
      "type": "function"
    },
    {
      "inputs": [
        {
          "internalType": "string",
          "name": "_proposal",
          "type": "string"
        }
      ],
      "name": "setProposal",
      "outputs": [],
      "stateMutability": "nonpayable",
      "type": "function"
    }
  ],
  "bytecode": "0x608060405234801561001057600080fd5b5033600460006101000a81548173ffffffffffffffffffffffffffffffffffffffff021916908373ffffffffffffffffffffffffffffffffffffffff160217905550610fa5806100616000396000f3fe608060405234801561001057600080fd5b50600436106100935760003560e01c8063745fd75111610066578063745fd751146101215780638da5cb5b1461013d578063cb8deaf11461015b578063d419cf4814610179578063d62d311f1461019757610093565b806309920f0d146100985780631267e905146100b45780631386dc2d146100e557806373b69a5114610103575b600080fd5b6100b260048036038101906100ad91906108dc565b6101b3565b005b6100ce60048036038101906100c99190610967565b610406565b6040516100dc929190610a3c565b60405180910390f35b6100ed6104bf565b6040516100fa9190610a6c565b60405180910390f35b61010b61054d565b6040516101189190610aab565b60405180910390f35b61013b60048036038101906101369190610bfb565b61055f565b005b61014561067b565b6040516101529190610c53565b60405180910390f35b6101636106a1565b6040516101709190610aab565b60405180910390f35b6101816106b5565b60405161018e9190610a6c565b60405180910390f35b6101b160048036038101906101ac9190610bfb565b610743565b005b60016040516101c29190610d6e565b6040518091039020600360003373ffffffffffffffffffffffffffffffffffffffff1673ffffffffffffffffffffffffffffffffffffffff1681526020019081526020016000206000016040516102199190610d6e565b60405180910390201415610262576040517f08c379a000000000000000000000000000000000000000000000000000000000815260040161025990610df7565b60405180910390fd5b80156102a8576002600081819054906101000a900461ffff168092919061028890610e46565b91906101000a81548161ffff021916908361ffff160217905550506102e3565b60028081819054906101000a900461ffff16809291906102c790610e46565b91906101000a81548161ffff021916908361ffff160217905550505b6040518060400160405280600180546102fb90610c9d565b80601f016020809104026020016040519081016040528092919081815260200182805461032790610c9d565b80156103745780601f1061034957610100808354040283529160200191610374565b820191906000526020600020905b81548152906001019060200180831161035757829003601f168201915b50505050508152602001821515815250600360003373ffffffffffffffffffffffffffffffffffffffff1673ffffffffffffffffffffffffffffffffffffffff16815260200190815260200160002060008201518160000190805190602001906103df9291906107ed565b5060208201518160010160006101000a81548160ff02191690831515021790555090505050565b600360205280600052604060002060009150905080600001805461042990610c9d565b80601f016020809104026020016040519081016040528092919081815260200182805461045590610c9d565b80156104a25780601f10610477576101008083540402835291602001916104a2565b820191906000526020600020905b81548152906001019060200180831161048557829003601f168201915b5050505050908060010160009054906101000a900460ff16905082565b600080546104cc90610c9d565b80601f01602080910402602001604051908101604052809291908181526020018280546104f890610c9d565b80156105455780601f1061051a57610100808354040283529160200191610545565b820191906000526020600020905b81548152906001019060200180831161052857829003601f168201915b505050505081565b60028054906101000a900461ffff1681565b600460009054906101000a900473ffffffffffffffffffffffffffffffffffffffff1673ffffffffffffffffffffffffffffffffffffffff163373ffffffffffffffffffffffffffffffffffffffff16146105ef576040517f08c379a00000000000000000000000000000000000000000000000000000000081526004016105e690610ee3565b60405180910390fd5b80600190805190602001906106059291906107ed565b506000600260006101000a81548161ffff021916908361ffff16021790555060006002806101000a81548161ffff021916908361ffff1602179055507fea9917f6c3b7344219c0e12aaec9f7028bdc92688a4a997826fc26d4005a63e4816040516106709190610a6c565b60405180910390a150565b600460009054906101000a900473ffffffffffffffffffffffffffffffffffffffff1681565b600260009054906101000a900461ffff1681565b600180546106c290610c9d565b80601f01602080910402602001604051908101604052809291908181526020018280546106ee90610c9d565b801561073b5780601f106107105761010080835404028352916020019161073b565b820191906000526020600020905b81548152906001019060200180831161071e57829003601f168201915b505050505081565b600460009054906101000a900473ffffffffffffffffffffffffffffffffffffffff1673ffffffffffffffffffffffffffffffffffffffff163373ffffffffffffffffffffffffffffffffffffffff16146107d3576040517f08c379a00000000000000000000000000000000000000000000000000000000081526004016107ca90610f4f565b60405180910390fd5b80600090805190602001906107e99291906107ed565b5050565b8280546107f990610c9d565b90600052602060002090601f01602090048101928261081b5760008555610862565b82601f1061083457805160ff1916838001178555610862565b82800160010185558215610862579182015b82811115610861578251825591602001919060010190610846565b5b50905061086f9190610873565b5090565b5b8082111561088c576000816000905550600101610874565b5090565b6000604051905090565b600080fd5b600080fd5b60008115159050919050565b6108b9816108a4565b81146108c457600080fd5b50565b6000813590506108d6816108b0565b92915050565b6000602082840312156108f2576108f161089a565b5b6000610900848285016108c7565b91505092915050565b600073ffffffffffffffffffffffffffffffffffffffff82169050919050565b600061093482610909565b9050919050565b61094481610929565b811461094f57600080fd5b50565b6000813590506109618161093b565b92915050565b60006020828403121561097d5761097c61089a565b5b600061098b84828501610952565b91505092915050565b600081519050919050565b600082825260208201905092915050565b60005b838110156109ce5780820151818401526020810190506109b3565b838111156109dd576000848401525b50505050565b6000601f19601f8301169050919050565b60006109ff82610994565b610a09818561099f565b9350610a198185602086016109b0565b610a22816109e3565b840191505092915050565b610a36816108a4565b82525050565b60006040820190508181036000830152610a5681856109f4565b9050610a656020830184610a2d565b9392505050565b60006020820190508181036000830152610a8681846109f4565b905092915050565b600061ffff82169050919050565b610aa581610a8e565b82525050565b6000602082019050610ac06000830184610a9c565b92915050565b600080fd5b600080fd5b7f4e487b7100000000000000000000000000000000000000000000000000000000600052604160045260246000fd5b610b08826109e3565b810181811067ffffffffffffffff82111715610b2757610b26610ad0565b5b80604052505050565b6000610b3a610890565b9050610b468282610aff565b919050565b600067ffffffffffffffff821115610b6657610b65610ad0565b5b610b6f826109e3565b9050602081019050919050565b82818337600083830152505050565b6000610b9e610b9984610b4b565b610b30565b905082815260208101848484011115610bba57610bb9610acb565b5b610bc5848285610b7c565b509392505050565b600082601f830112610be257610be1610ac6565b5b8135610bf2848260208601610b8b565b91505092915050565b600060208284031215610c1157610c1061089a565b5b600082013567ffffffffffffffff811115610c2f57610c2e61089f565b5b610c3b84828501610bcd565b91505092915050565b610c4d81610929565b82525050565b6000602082019050610c686000830184610c44565b92915050565b7f4e487b7100000000000000000000000000000000000000000000000000000000600052602260045260246000fd5b60006002820490506001821680610cb557607f821691505b60208210811415610cc957610cc8610c6e565b5b50919050565b600081905092915050565b60008190508160005260206000209050919050565b60008154610cfc81610c9d565b610d068186610ccf565b94506001821660008114610d215760018114610d3257610d65565b60ff19831686528186019350610d65565b610d3b85610cda565b60005b83811015610d5d57815481890152600182019150602081019050610d3e565b838801955050505b50505092915050565b6000610d7a8284610cef565b915081905092915050565b7f416c726561647920766f7465206361737420666f72206163746976652070726f60008201527f706f73616c000000000000000000000000000000000000000000000000000000602082015250565b6000610de160258361099f565b9150610dec82610d85565b604082019050919050565b60006020820190508181036000830152610e1081610dd4565b9050919050565b7f4e487b7100000000000000000000000000000000000000000000000000000000600052601160045260246000fd5b6000610e5182610a8e565b915061ffff821415610e6657610e65610e17565b5b600182019050919050565b7f4f6e6c79206f776e657220616c6c6f77656420746f206368616e67652070726f60008201527f706f73616c000000000000000000000000000000000000000000000000000000602082015250565b6000610ecd60258361099f565b9150610ed882610e71565b604082019050919050565b60006020820190508181036000830152610efc81610ec0565b9050919050565b7f4f6e6c79206f776e65722063616e20736574206f7267206e616d650000000000600082015250565b6000610f39601b8361099f565b9150610f4482610f03565b602082019050919050565b60006020820190508181036000830152610f6881610f2c565b905091905056fea2646970667358221220584a26372b24e1bcb9037d9e9c9cea995f37f1a97ceb91847567790d0c9d3b8964736f6c63430008090033",
  "linkReferences": {},
  "deployedLinkReferences": {}
}